:020000040800F2
:100000006809002089010008BF140008D513000802
:10001000BD1400087F0300087D18000800000000E0
:10002000000000000000000000000000C3140008F1
:100030008103000800000000C1140008C514000876
:10004000A3010008A3010008A3010008A301000800
:10005000A3010008A3010008A3010008A3010008F0
:10006000A3010008A3010008A3010008A3010008E0
:10007000A3010008A3010008A3010008A3010008D0
:10008000A3010008A3010008A3010008A3010008C0
:10009000A3010008A3010008A3010008A3010008B0
:1000A000A3010008A3010008A3010008A3010008A0
:1000B000A30100081D150008A3010008A301000802
:1000C000A3010008A3010008A3010008A301000880
:1000D000A3010008A30100081918000871180008FE
:1000E000A3010008A3010008A301000800F002F822
:1000F00000F03AF80AA090E8000C82448344AAF188
:100100000107DA4501D100F02FF8AFF2090EBAE885
:100110000F0013F0010F18BFFB1A43F0010318473B
:100120005026000070260000103A24BF78C878C11D
:10013000FAD8520724BF30C830C144BF04680C60ED
:10014000704700000023002400250026103A28BF35
:1001500078C1FBD8520728BF30C148BF0B60704739
:100160001FB51FBD10B510BD00F0CFF81146FFF749
:10017000F7FF01F08DFF00F0EDF803B4FFF7F2FF99
:1001800003BC00F0F5F80000094880470948004723
:10019000FEE7FEE7FEE7FEE7FEE7FEE7FEE7FEE737
:1001A000FEE7FEE704480549054A064B7047000094
:1001B00019150008ED0000086803002068090020F8
:1001C0006805002068050020032A40F2308010F006
:1001D000030C00F0158011F8013BBCF1020F6244E2
:1001E00098BF11F801CB00F8013B38BF11F8013B73
:1001F000A2F1040298BF00F801CB38BF00F8013B20
:1002000011F0030300F04F80083AC0F0088051F865
:10021000043B083A51F804CBA0E80810F5E7121D9A
:100220005CBF51F8043B40F8043BAFF30080D207B9
:1002300024BF11F8013B11F801CB48BF11F8012B85
:1002400024BF00F8013B00F801CB48BF00F8012BA8
:1002500070474FF0000200B5134694469646203989
:1002600022BFA0E80C50A0E80C50B1F12001BFF46F
:10027000F7AF090728BFA0E80C5048BF0CC05DF8D5
:1002800004EB890028BF40F8042B08BF704748BF23
:1002900020F8022B11F0804F18BF00F8012B704797
:1002A00070477047704710B5203AC0F00B80B1E836
:1002B0001850203AA0E81850B1E81850A0E818509B
:1002C000BFF4F5AF5FEA027C24BFB1E81850A0E8A4
:1002D000185044BF18C918C0BDE810405FEA827CBE
:1002E00024BF51F8043B40F8043B08BF7047D207D5
:1002F00028BF31F8023B48BF11F8012B28BF20F876
:10030000023B48BF00F8012B7047754600F02CF8FF
:10031000AE4605006946534620F00700854618B0F2
:1003200020B5FFF73FFFBDE820404FF000064FF03B
:1003300000074FF000084FF0000B21F00701AC461A
:10034000ACE8C009ACE8C009ACE8C009ACE8C00939
:100350008D46704710B50446AFF300802046BDE8D7
:100360001040FFF70ABF0000004870470803002054
:1003700001491820ABBEFEE7260002007047FEE7E9
:10038000704710B590F821100022022905D00421F1
:10039000816380F82020012010BD01680B6823F0E4
:1003A0000E030B6001680B6823F001030B6090F8EB
:1003B0004030C46B012101FA03F3636080F821101F
:1003C00080F82020104610BD10B590F821100024B0
:1003D000022903D00421816301243DE001680A68F9
:1003E00022F00E020A6001680A6822F001020A6027
:1003F0001A4A0168914201D1012121E0174A1432C1
:10040000914201D110211BE0144A2832914201D1BE
:10041000891515E0114A3C32914201D189140FE04F
:100420000E4A5032914202D14FF4803108E00B4A1B
:100430006432914202D14FF4801101E04FF080719B
:10044000064A083A5160012180F82110002180F805
:100450002010416B01B18847204610BD08000240C2
:100460002DE9F84FDFF8B891002409F1040A0AF1E8
:10047000040B23460F270BF1040EC9E00125A5400C
:100480002A40AA427DD1674ED1F804C0ACEB0608E1
:10049000B44532D014DCBCF1030F3AD009DCBCF116
:1004A000000F2AD0BCF1010F1CD0BCF1020F31D1DA
:1004B0001DE0BCF1110F17D0BCF1120F2AD119E0C9
:1004C000B8F5881F19D006DCB8F5803F15D0B8F50F
:1004D000801F1FD111E0B8F5001F0ED0B8F5041F22
:1004E00018D10AE0CB6815E0CB681B1D12E0CB6881
:1004F00008330FE0CB680C330CE08B682BB1012B79
:100500004FF0080303D0456104E0042302E00561D5
:1005100000E00023FF2A01D8064601E000F10406AE
:100520004FEA840501D9A5F12005D6F8008007FA25
:1005300005FC28EA0C0803FA05F548EA0508C6F8A0
:1005400000804D68ED0062D5374DAE6946F001067A
:10055000AE61AD6924F0030605F001050095334D49
:1005600006EB050CDCF80850A607360F07FA06F86C
:1005700025EA0805DFF8B880404503D14FF00008B0
:1005800017E044E0DFF8AC80404502D14FF00108AD
:100590000FE0DFF8A480404502D14FF0020808E0E8
:1005A000DFF89880404502D14FF0030801E04FF09A
:1005B000040808FA06F848EA0508CCF808804D68EF
:1005C000D9F80060ED034D4601D5164300E096438F
:1005D0002E604D68DAF80060AD03554601D516432C
:1005E00000E096432E604D68DBF80060ED025D464A
:1005F00001D5164300E096432E604D68DEF800609A
:10060000AD02754601D5164300E096432E60641C8A
:100610000D682A46E5407FF431AFBDE8F88F000051
:1006200000040140000011100010024000000140D1
:1006300000080140000C014000100140001401407E
:100640000AB1016170470904FBE7000001488068B6
:1006500070470000000000200248816802781144C1
:100660008160704700000020074810B5016841F024
:1006700010010160032000F075F80F2000F006F86B
:1006800000F024F8002010BD0020024070B50D4D90
:1006900004464FF47A712878B1FBF0F00A490968F2
:1006A000B1FBF0F000F0ECFA48B9102C07D20022B0
:1006B0002146501E00F036F800206C6070BD01200D
:1006C00070BD0000000000200C0000200C4808B5A0
:1006D000816941F001018161816901F001010091AD
:1006E000C16941F08051C161C06900F08050009043
:1006F0000448416821F0E06141F00071416008BDAB
:100700000010024000000140002809DB00F01F0239
:10071000012191404009800000F1E020C0F8001163
:1007200070470000F0B40E4B1B680C46C3F3022365
:10073000C3F10705042D00D90425191D072901D28D
:10074000002300E0DB1E012606FA05F1491E2140C8
:1007500099409E40761E16403143F0BC01F08FB8A0
:100760000CED00E0064900F0070208684FF6FF03B1
:10077000184040EA0220034A104308607047000016
:100780000CED00E00000FA052DE9F0470F460500EA
:1007900061D0434E306800F00700B84209D230689B
:1007A00020F0070038433060306800F00700B8429E
:1007B00051D128683B4C810712D5400703D56068AA
:1007C00040F4E06060602878000703D5606840F47A
:1007D000605060606068A96820F0F00008436060C5
:1007E0002878C00728D06868012810D0216802281E
:1007F00010D0890700292EDA616821F00301014336
:100800006160FFF723FF804641F288390DE02168DF
:100810008903EFE78901EDE7FFF718FFA0EB080177
:10082000494502D90320BDE8F0876068696800F097
:100830000C00B0EB810FEFD1306800F00700B84238
:100840000BD9306820F0070038433060306800F082
:100850000700B84201D00120E5E72878400705D518
:100860006068E96820F4E060084360602878000769
:1008700006D56068296920F4605040EAC1006060D4
:1008800000F038F86168084AC1F30311515CC840B0
:100890000649086006480068FFF7F8FE0020C2E736
:1008A0000020024000100240582500080C000020E3
:1008B000040000200448054900684968044AC1F35F
:1008C0000221515CC84070470C000020001002401B
:1008D000682500080448054900684968044AC1F3CE
:1008E000C221515CC84070470C000020001002403B
:1008F0006825000812A185B00FC98DE80F0014A06B
:10090000144A006804905168134801F00C03042B4A
:1009100010D0082B0ED1C1F38343C9031DF8030087
:100920000AD5516804AAC1F34041515C0A4A5043B8
:10093000B0FBF1F005B0704708494843FAE7000002
:1009400002030405060708090A0B0C0D0E0F101010
:10095000010200000010024000127A0000093D0070
:100960002DE9F84F040070D02078C04DC00749D061
:100970006868C0F38100012807D06868C0F381006F
:10098000022809D16868C00306D52868800339D5D4
:1009900060680028E7D035E06068B0F5803F0BD094
:1009A00010B1B0F5A02F11D0286820F48030286055
:1009B000286820F4802002E0286840F48030286015
:1009C000606890B1FFF742FE06460AE0286840F4EE
:1009D00080202860F0E700BFFFF738FE801B642806
:1009E00073D828688003F7D50CE0FFF72FFE064682
:1009F00005E000BFFFF72AFE801B6428F0D82868B6
:100A00008003F7D420789A4E80074FF001094FF009
:100A1000000839D5686810F00C0F07D06868C0F37B
:100A20008100022809D16868C00306D428688007BD
:100A300014D52069012808D110E02069B0B1C6F8AA
:100A40000090FFF703FE074605E00AE1FFF7FEFD11
:100A5000C01B0228C4D828688007F7D528686169B8
:100A600020F0F80040EAC10028600DE0C6F80080E0
:100A7000FFF7ECFD074604E0FFF7E8FDC01B022886
:100A800023D828688007F7D4207800072CD5794828
:100A9000A169D9B1C0F80090FFF7D8FD074604E07E
:100AA000FFF7D4FDC01B02280FD8686A8007F7D56E
:100AB00071484FF4FA510068B0FBF1F0009000BFAC
:100AC0000098411E0091FAD20EE080E0C0F800804C
:100AD000FFF7BCFD074604E0FFF7B8FDC01B022886
:100AE00075D8686A8007F7D42078400760D5E86930
:100AF0000027C00008D4E86940F08050E861E86948
:100B0000012700F0805000905C480168C90513D4AB
:100B10000168834641F480710160FFF797FD8246CA
:100B200006E000BFFFF792FDA0EB0A0064284ED854
:100B3000DBF80000C005F5D5E06801280AD008B14F
:100B4000052813D0286A20F001002862286A20F0C6
:100B5000040002E0286A40F001002862E06841F2E7
:100B6000883B98B1FFF772FD82460BE0286A40F09F
:100B700004002862EEE700BFFFF768FDA0EB0A0162
:100B800059455AD8286A8007F6D50CE0FFF75EFD74
:100B9000824605E0FFF75AFDA0EB0A0159454CD803
:100BA000286A8007F6D41FB1E86920F08050E86118
:100BB000E06988B36968C1F38101022944D0022841
:100BC000C6F8608004D0FFF741FD044638E034E009
:100BD000FFF73CFD074604E0FFF738FDC01B022885
:100BE0002BD828688001F7D4206AB0F5803F05D162
:100BF0006868A16820F4003008436860D4E90801FF
:100C00000843696821F4741108436860C6F860906D
:100C1000FFF71CFD044606E025E000BFFFF716FDC8
:100C2000001B022809D828688001F7D51BE000BF07
:100C3000FFF70CFD001B022802D90320BDE8F88F46
:100C400028688001F4D40EE00128F7D06868226A91
:100C500000F48031914204D1616A00F4701088423E
:100C600001D00120EAE70020E8E700000010024080
:100C700000004242800442420C000020007000400C
:100C800010B5401EB0F1807F01D3012010BD4FF0A0
:100C9000E02460610F21601700F0F1FD0020A061E9
:100CA00007202061002010BD7047704770B590F894
:100CB0003C20012A26D0012480F83C40022280F802
:100CC0003D2003685A689D6822F070060A68324326
:100CD0005A600D4B02689A4208D0B2F1804F05D09D
:100CE0000A4B9A4202D00A4B9A4204D1496825F035
:100CF00080031943916080F83D40002180F83C104A
:100D0000084670BD022070BD002C01400004004068
:100D10000008004010B5040003D094F83D0010B165
:100D200007E0012010BD002084F83C00204600F0C0
:100D30001FF8022084F83D00211D206800F010FCFF
:100D4000012084F8460084F83E0084F83F0084F8CF
:100D5000400084F8410084F8420084F8430084F89D
:100D6000440084F8450084F83D00002010BD0000D8
:100D700008B500680B49884212D10B48C16941F09F
:100D80000201C161C069002200F00200009011461A
:100D90001D20FFF7C7FCBDE808401D20FFF7B4BCCD
:100DA00008BD0000000400400010024090F83D1013
:100DB000012901D001207047022180F83D1001680F
:100DC000CA6842F00102CA6000680B49884208D034
:100DD000B0F1804F05D00949884202D008498842C5
:100DE00004D1816801F00701062903D0016841F0B0
:100DF0000101016000207047002C01400004004008
:100E0000000800400168CA6822F00102CA60016857
:100E10000A6A41F211131A4207D10A6A9B101A4258
:100E200003D10A6822F001020A60012180F83D1016
:100E300000207047704770B50446006801694FF0A4
:100E40000005C943890715D4C168C943890711D46E
:100E5000E91E016101202077206880698007204613
:100E600002D0FFF7E7FF04E000F098F8204600F01A
:100E700096F8257720680169C943490717D4C168E6
:100E8000C943490713D46FF00401016102202077A0
:100E90002068806910F4407F204602D0FFF7CAFF27
:100EA00004E000F07BF8204600F079F82577206810
:100EB0000169C943090716D4C168C943090712D497
:100EC0006FF008010161042020772068C069800765
:100ED000204602D0FFF7AEFF04E000F05FF82046A6
:100EE00000F05DF8257720680169C943C90617D469
:100EF000C168C943C90613D46FF01001016108200D
:100F000020772068C06910F4407F204602D0FFF7A8
:100F100091FF04E000F042F8204600F040F8257709
:100F200020680169C943C90708D1C168C943C90715
:100F300004D1891E0161204600F032F82068016961
:100F4000C943090609D4C168C943090605D46FF02D
:100F5000800101612046FFF7A7FE20680169C943AF
:100F6000490609D4C168C943490605D46FF0400158
:100F70000161204600F015F820680169C94389061F
:100F80000BD4C168C943890607D46FF02001016101
:100F90002046BDE87040FFF788BE70BD70477047BF
:100FA0007047704770477047F8B50268044610688C
:100FB000D168536910F00F0F4FF0000553D003F0C4
:100FC000010601F4907737435FD0C20705D0CA0508
:100FD00003D5226C42F001022264420705D5DA07EC
:100FE00003D0226C42F002022264820705D5DA07A0
:100FF00003D0226C42F004022264020707D501F0FC
:101000002002324303D0226C42F008022264226C98
:10101000002A34D0800604D5880602D5204600F088
:10102000F5FA20684069216CC0F38010090700D4EC
:1010300030B3204600F0D2FA2068416949061BD53A
:10104000416921F040014161A06BA8B15849416359
:10105000A06BFFF7B9F9002811D0A06B416B01B06C
:10106000BDE8F040084783060FD58B060DD5204616
:10107000BDE8F84000F0CABA2046FFF794FFF8BD7B
:101080002046FFF790FF2564F8BD266B2023012E34
:1010900052D1C60650D5CE064ED510685068009085
:1010A000506940062AD5A16B086840680004000C0E
:1010B000EAD0A68D8642E7D9E0858869202818D035
:1010C000D06820F48070D0602068416921F001016F
:1010D00041612068416921F04001416184F83E305E
:1010E00025632068C16821F01001C160A06BFFF783
:1010F00048F9A08DE18D401A81B219E0A08DE18DF3
:10110000401A81B2E08D0028BED00029BCD0D06842
:1011100020F49070D0602068426922F001024261A0
:1011200084F83E3025632068C26822F01002C26055
:101130002046FFF737FFF8BD05062BD50D0629D54C
:1011400094F83D002128F6D1A068B0F5805F01D168
:101150002069B0B1206A411C216221680078486092
:10116000E08C401E0004000CE084E4D12068C168DB
:1011700021F08001C1602068C16841F04001C16078
:10118000F8BD206A0088C0F308005060206A801C07
:101190002062E5E74006F3D54806F1D5D168204640
:1011A00021F04001D16084F83D3000F012F9F8BD23
:1011B000CD15000870B5040004D094F83D0000255A
:1011C00010B106E0012070BD84F83C50204600F0CC
:1011D00023F8242084F83D002068C16821F40051E0
:1011E000C160204600F06EFA2068016921F4904148
:1011F00001612068416921F02A0141612068C168CC
:1012000041F40051C1602564202084F83D0084F839
:101210003E00002070BD000030B585B00024009471
:101220000194029403942E4D03682E480221032258
:10123000AB4227D1C36943F40033C361C36903F4EC
:1012400000330493836943F0040383618069264D6E
:1012500000F0040004900420CDE9000103926946E7
:101260002846FFF7FDF80820CDE900046946284626
:101270000294FFF7F5F8002211462620FFF752FAF4
:10128000262029E0194DAB4228D1C36943F48023BD
:10129000C361C36903F480230493836943F00803A3
:1012A00083618069039200F0080004902815CDE95D
:1012B00000010F4D69462846FFF7D2F8E814CDE942
:1012C0000004694628460294FFF7CAF80022114636
:1012D0002720FFF727FA2720FFF716FA05B030BDC1
:1012E0000044004000100240000801400048004057
:1012F000000C014090F83E30202B0ED159B152B174
:1013000090F83C30012B08D0012380F83C300023BA
:10131000036300F033BA0120704702207047704722
:101320002DE9F843044690F83D001F4616460D4649
:1013300020284CD1C5B1BEB194F83C00012846D05C
:10134000012084F83C004FF00008C4F840802120C0
:1013500084F83D00FFF77AF9A6848146E684A06808
:10136000B0F5805F03D004E00120BDE8F883206978
:1013700028B12E465FF0000584F83C800EE0002680
:10138000FAE78021204600F014FAA0B9AEB116F8B1
:10139000010B21684860E08C401EE084E08C4B46E5
:1013A0004FF0000200970028EBD14FF0400120469B
:1013B00000F0FFF930B10320D7E735F8020BC0F396
:1013C0000800E6E7202084F83D000020CDE7022059
:1013D000CBE77047FEE700002DE9F04385B000241D
:1013E00021480094019402940394816941F0200102
:1013F0008161816901F020010491816941F004015A
:101400008161816901F004010491816941F0080161
:1014100081618069DFF8548000F0080004900022A8
:1014200010214046FFF70CF9DFF844904FF4805745
:10143000002239464846FFF703F91020012502260D
:10144000CDE90005CDE9024669464046FFF708F8B8
:1014500000970396CDE9015469464846FFF700F826
:1014600005B0BDE8F0830000001002400008014014
:10147000000C014010B5104C0E484FF48061206004
:101480004FF4E13060604FF48050A0600020C4E968
:1014900003010C21C4E90510E0612046FFF78AFE34
:1014A00008B172B6FEE72068C16841F02001C16052
:1014B00010BD00000044004024010020FEE7FEE7CC
:1014C00070477047FFF7C8B810B590B0282168463C
:1014D000FEF7BFFE14210AA8FEF7BBFE0220009013
:1014E0000120049010200024059007946846FFF71F
:1014F00037FA08B172B6FEE70F20CDE90A040C9462
:101500000D9400210AA80E94FFF73EF9002801D09F
:1015100072B6FEE710B010BD704700000D4810B560
:1015200000680169C943C9070FD1C168C943C90728
:101530000BD1891E016108480188491E0904090C64
:10154000018002D1054800688047BDE8104001488D
:10155000FFF771BCDC000020CC0000203800002028
:10156000F0B50268164B174C174D4FF08047984264
:1015700005D0B84203D0A04201D0A84203D122F046
:1015800070064A683243984205D0B84203D0A04260
:1015900001D0A84203D122F44074CA6822434C69A6
:1015A00022F08002224302608A68C2620A68826274
:1015B000984201D10969016301214161F0BD000038
:1015C000002C0140000400400008004010B5406AB3
:1015D0000021C185C184FFF7E6FC10BD0168CA681F
:1015E00022F49072CA6001684A6922F001024A61DD
:1015F000016B012904D10168CA6822F01002CA6097
:10160000202180F83E1000210163704708B590F852
:101610003E10222901D0022008BD82684FF4805379
:101620009A4201D1016921B1816A9A421BD04AB123
:101630000AE00268816A5268C2F308020A80816A7D
:10164000891C08E0026972B10268526802F07F02E8
:101650000A70816A491C8162C18D491E0904090C06
:10166000C18503D019E002685268F1E70168CA68D1
:1016700022F02002CA600168CA6822F48072CA603F
:1016800001684A6922F001024A61202180F83E1077
:10169000016B012903D0FFF742FE002008BD0021A5
:1016A00001630168CA6822F01002CA6001680A6812
:1016B000D20602D50A6849680091818DFFF772FC55
:1016C000EBE7000070B5044600680169E26821F4A8
:1016D0004051114301612169A068084361690843D1
:1016E0002168CA6841F20C639A430243CA602068C9
:1016F0004169A26921F44071114341611E4920688A
:10170000884202D1FFF7E6F801E0FFF7D3F800EBDB
:10171000C00101EB0012606864218000B2FBF0F3AD
:10172000B3FBF1F36FF018067343B2FBF0F5B2FBB5
:10173000F0F605EB8305322303EB0515B5FBF1F558
:10174000B6FBF1F605F0F00505EB0615B2FBF0F679
:10175000B2FBF0F0B0FBF1F06FF01802504306EB73
:10176000800003EB0010B0FBF1F0216800F00F00E7
:101770002844886070BD0000003801408162828585
:10178000C28500210164222280F83E2080F83C10AE
:101790000168CA6842F48072CA6001684A6942F00E
:1017A00001024A610068C16841F02001C160002067
:1017B00070472DE9F041984617460E460446069DAF
:1017C0001DE0681C1BD02DB1FEF740FFA0EB080008
:1017D000A84214D92068C16821F4D071C160206882
:1017E000416921F001014161202084F83D0084F825
:1017F0003E00002084F83C000320BDE8F081206812
:10180000006836EA000004D00020B842D9D0002099
:10181000F3E70120F9E7000038B5124C20680168B1
:10182000C1F34012C16801F0200142B139B10E4844
:1018300000688047206801684068009038BD0168F2
:10184000C943090608D4C068000605D507480068E2
:1018500001B0BDE830400047BDE838400148FFF71F
:10186000A3BB000024010020300000203400002031
:101870000148FFF799BB000068010020FEE7090757
:10188000090E002804DB00F1E02080F80014704706
:1018900000F00F0000F1E02080F8141D70470346AF
:1018A00010B50020024602E09C5C6040521C8A4257
:1018B000FADB10BD70B5064D00242878012802D04F
:1018C0000624204670BD2869804700202870F8E76C
:1018D0001000002070B50C460988002505292FD17D
:1018E000417840F2CF760A0281781143C278491CD0
:1018F0001302027989B21A43531EB34220D2002345
:101900002380012300F8013B2688761C2680560799
:1019100003D003EBD203DEB201E0C2F3C70600F846
:10192000016B23885B1C2380002300F0CBFA18B1E5
:1019300000F0B6FC054604E020883044208000E03A
:101940000325284670BD70B50C4609880025052979
:101950002FD1417840F2CF760A0281781143C278C4
:10196000491C1302027989B21A43531EB34220D292
:1019700000232380022300F8013B23885B1C238083
:10198000530704D0012303EBD203DEB201E0C2F31C
:10199000C70600F8016B23885B1C238000F0E2FA85
:1019A00018B100F07DFC054604E02088304420801A
:1019B00000E00325284670BD70B50C460988002656
:1019C000052928D1417805790A0281781143C27826
:1019D000491C45EA02256A1E89B27C2A1BD80022CE
:1019E0002280032200F8012B22880023521C22802F
:1019F0006A0000F8012B2288521C22802A4600F03F
:101A0000E9FA18B100F04CFC064605E0208800EB2E
:101A10004500208000E00326304670BD70B50C46BE
:101A200009880026052927D1417805790A0281789D
:101A30001143C278491C45EA02256A1E89B27C2AF4
:101A40001AD200222280042200F8012B2288521C84
:101A500022806A0000F8012B2288521C22802A462C
:101A600000F0F0FA18B100F01BFC064605E02088F3
:101A700000EB4500208000E00326304670BD2DE9D4
:101A8000F0410446088800270D460A2842D36078B2
:101A900026790102A078227A0843401C1FFA80F8B8
:101AA000E07846EA00266079731E0102A0790843B7
:101AB000401C81B2E0797C2B42EA0022607A28D86F
:101AC0003AB3792A25D8B0EB420F22D1012304F191
:101AD0000A0000F07FFA98B90021298017212170AF
:101AE0002988601C491C2980710000F8011B298885
:101AF0000023491C29803246414600F06BFA18B198
:101B000000F0CEFB074605E0288800EB4600288061
:101B100000E003273846BDE8F081000070B5064CB0
:101B20000D4606492288401CFEF74EFB2088401CCB
:101B30002880002070BD0000C6000020E6010020C3
:101B400038B50988002405290BD141780A0281782B
:101B50001143491C027989B21AB9C278FF2A03D00D
:101B600012B10324204638BD00228DF80120C07830
:101B7000FF280CD08DF8002001231A46684600F09B
:101B8000A1F90028EED000F08BFB0446EAE7012023
:101B90008DF80000F0E710B509880024052902D06F
:101BA0000324204610BD417801230A028178C01C1D
:101BB0001143491C89B21A4600F00CFA0028F0D0F3
:101BC00000F06EFB0446ECE72DE9F0410D46098874
:101BD0000024052926D9417843790A0281781143E6
:101BE000491C8EB2C178027942EA0122510704D021
:101BF000012101EBD201C9B201E0C2F3C701571EB6
:101C0000B7F5F66F0ED299420CD101233146801DF3
:101C100000F058F918B100F043FB044603E005203A
:101C2000288000E003242046BDE8F08170B50D4611
:101C30000988002406291DD341780A0281781143BE
:101C4000C278491C1302027989B21A434379561E9D
:101C5000772E0FD85606360E9E420BD10123801DDB
:101C600000F0B8F918B100F01BFB044603E00520B2
:101C7000288000E00324204670BD00002DE9F041DB
:101C80001D46069B1746064629B1F72903D8134C73
:101C9000084621710EB102251BE01149216111494D
:101CA00061611149E1601149A1610021E1611049BF
:101CB0002162104961621049A1622A46394600F04A
:101CC00075F8050005D100F063FB28B166710120AD
:101CD00020702846BDE8F0810325FAE710000020B7
:101CE000911E0008B11E0008351E0008ED1D0008F9
:101CF00035240008BD2400089524000838B52A4C76
:101D0000207808B1062038BD684600F033FB012872
:101D100048D19DF80000012844D0022802D00428B0
:101D200040D10FE0204AA369921D911CC81F98471B
:101D3000C0BB60782179884200D098BB042000F0B5
:101D40002FFB2FE0A0680121174B0278A270E170F1
:101D500000212C3313F8315065B1954207D103EBC4
:101D6000C1014A681049891D9047E07002E0491C92
:101D70001029EFDB6078A8B1E07870B10021E18034
:101D8000A17841F08002A1680A70E288521C92B2E8
:101D9000E2808854E088401CE080D4E90213E288A5
:101DA00020799847002038BD1000002070B51546F6
:101DB0000846002472B60822294600F001FB0128DB
:101DC0000DD1B5F5964F01D9232003E006496800EF
:101DD000B1FBF0F080B200F003FB012800D0032437
:101DE00062B6204670BD0000A07F17002DE9F041CB
:101DF000164688460746002572B60C4CA088042873
:101E000004D3A1880A4800F065FA20B1052562B61E
:101E10002846BDE8F081064800783870A088C01ECA
:101E200030800348401CC8F80000F0E7D0000020D4
:101E30000602002070B50346002572B6124C607889
:101E4000012803D0052562B6284670BD491E01262B
:101E5000A160084666800B706188114461806188CA
:101E600000F038FA6188094A5318491C61801870DB
:101E7000010A60880244401C6080117026700121B4
:101E8000002000F03DFADEE7D0000020060200202E
:101E900010B572B60020054948700146012000F0D7
:101EA0002FFA00F05DFA62B610BD0000D0000020ED
:101EB00010B572B60021084600F022FA00F04AFA86
:101EC00062B610BD2DE9F04704460120244F00EB17
:101ED000D206781E491E858888B281184FF0000905
:101EE000082937D8401BC0F3CC0500F0070A02F0E0
:101EF00007086BB1012B2FD121E078196D1CADB211
:101F00000822514600F002FB761E04F8010BB6B21F
:101F1000002EF2D114F8012DC8F108018A40D0B288
:101F2000C840207018E000BF78196D1C14F8013B00
:101F3000ADB20822514600F0FAFA761EB6B2012E72
:101F4000F2D85FEA080207D023787819514600F0EA
:101F5000EEFA01E04FF001094846BDE8F0870000C5
:101F6000BD0000202DE9F047044617460120DFF8A8
:101F7000609000EBD7054846491E428888B2C119D7
:101F80004FF0000808291ED8801AC0F3CC0600F0D4
:101F9000070A0BE009EB0600761CB6B20822514690
:101FA00000F0B4FA6D1E04F8010BADB2002DF1D1B2
:101FB00007F0070014F8012DC0F108018A40D0B2E3
:101FC000C840207001E04FF001084046BDE8F087AE
:101FD000BC000020F0B51A4E491E89B20025174CEE
:101FE00036898F18082F26D8891B89B27BB1012B1F
:101FF00022D11DE034F811301B0A00F8013B14F81F
:102000001130491C521E00F8013B89B292B2002ADD
:10201000F0D111E010F8013B1B0224F8113010F848
:10202000016B334324F81130491C521E89B292B21D
:10203000002AEFD100E001252846F0BDD60100209E
:10204000BC00002070B5114D491E89B200240E4B12
:10205000ED888E180A2E13D8491B89B20DE000BFF7
:1020600033F811502D0A00F8015B13F81150491C88
:10207000521E00F8015B89B292B2002AF0D100E052
:102080000124204670BD0000C2010020BC000020D9
:1020900086B0FEF7E9FAFFF717FAFFF79DF9FFF7A9
:1020A000E9F9784978488D144FF4E1378560C0E943
:1020B000001700240915C0E903410C21C0E90514EB
:1020C000C461FFF777F808B172B6FEE76E486F4952
:1020D0008C38C460C0E900148460FEF71BFE00B1B8
:1020E000FEE72020CDE900046748A04669468C3809
:1020F000FEF7DCFD00B1FEE7002210216448FEF788
:102100009FFA644E002229463046FEF799FA0220D3
:10211000014600903B4603220020FFF7AFFDFFF78A
:10212000C9FBFEF793FA07465BA0574C006844349E
:10213000DFF86891CDF81000FFF7E0FD9BE0012289
:1021400029463046FEF77CFAFF23022204A94E48B6
:10215000FFF7E6F8002229463046FEF771FA4A49B1
:10216000152244314848FFF7C5F82078002875D17A
:10217000454814214430FFF792FB217D88426DD100
:102180000120A9F800006078494600F04000A9F855
:102190000200207A627A400602F07F0240EA824022
:1021A000227BC44602F07F0240EAC220627B02F03A
:1021B0007F0240EA0210A27B02F07F02D30818439C
:1021C000E37B520703F07F07237C42EA875203F048
:1021D0007F0340EA972042EAC33240EA5340637CDF
:1021E00003F07F0342EA032240EA1360030C8B8072
:1021F00083B20020DCF12007984101D2012000E0E9
:102200000020C880100C40EA084008814A81A07A6A
:10221000E27A400202F07F0240EA82008881A079DF
:10222000E279400202F07F0240EA8200C881A07891
:10223000E278400702F07F0240EA8250227902F001
:102240007F0240EAC230627902F07F0240EA022057
:10225000020C0A82A9F8120005E0FFE720780228A4
:1022600001D1A9F80080084815214430FDF7F1FF9D
:10227000FEF7ECF90746FEF7E9F9C01B32287FF6B6
:102280005BAF5CE7004800406801002000040040AC
:1022900000080140000C0140C8370000C2010020C6
:1022A000002804D0012803D0072803D00420704759
:1022B0000220704706207047054B30B1012806D137
:1022C000002210211846FEF7BBB90122F9E770473A
:1022D0000008014070B5094DFF231A4605F58076C8
:1022E00006E000BF10F8014B54402A5D5A40335DB0
:1022F000491E89B2F6D242EA032070BD702500085B
:1023000070B5134C0D4638B10120FFF7D5FF20689A
:10231000C16841F0200106E00020FFF7CDFF2068F2
:10232000C16821F02001C16045B10020FFF7C4FF62
:102330002068C16841F08001C16070BD2068C1683B
:1023400021F08001C160BDE870400120FFF7B4BFFB
:10235000240100200148FEF755BD0000DC000020EC
:102360000248018841800248FEF720BDCA000020D3
:10237000DC0000200549024600204B78002B04D0E9
:10238000087810700020487001207047C8000020B5
:10239000024900204870012070470000C80000205A
:1023A000024901224A70087010467047C800002098
:1023B0000249096849680170012070472401002022
:1023C0000120704701B50A23012269460348FEF740
:1023D000A7FF08B1002008BD012008BD240100208E
:1023E0007CB5114C05460F482060FEF763FA0F4993
:1023F0000026B0FBF1F0401EC4E901063120E06088
:102400000B4805802046FEF785FC38B92020CDE931
:10241000000669462046FEF749FC08B100207CBD55
:1024200001207CBD00040040DC00002040420F0081
:10243000CA00002038B500246846FFF7B9FF1349E9
:10244000487830B1124A012807D0022810D003285A
:1024500001D1FFF785FF204638BD002088809DF818
:10246000003088880244401C8880137002200BE0F2
:102470008888FF2807D89DF8003088880244401CCF
:1024800088801370E5E703204870E2E7D000002061
:102490000602002070B5084D0024687810B10228AB
:1024A00004D100E00120FFF77BFF0446FFF752FF55
:1024B00001206870204670BDD000002070B5124C1D
:1024C0000025207810B101281CD104E00021012052
:1024D000FFF716FF16E0608850B1A0680078FFF79C
:1024E00071FFA068401CA0606088401E608009E009
:1024F0000820FFF755FF054600210120FFF700FFE8
:1025000000202070284670BDD000002010B5CB08F8
:102510005C4201EBC40401219140C25C1844407844
:1025200042EA0020E040491E0840C0B210BD70B52C
:10253000CC08654201EBC505AB4001219140491E25
:10254000A9400519025D6E7842EA06228A431A43C1
:102550000255100A687070BD000000000000000005
:102560000102030406070809000000000102030439
:1025700000C1814001C0804101C0804100C1814053
:1025800001C0804100C1814000C1814001C0804143
:1025900001C0804100C1814000C1814001C0804133
:1025A00000C1814001C0804101C0804100C1814023
:1025B00001C0804100C1814000C1814001C0804113
:1025C00000C1814001C0804101C0804100C1814003
:1025D00000C1814001C0804101C0804100C18140F3
:1025E00001C0804100C1814000C1814001C08041E3
:1025F00001C0804100C1814000C1814001C08041D3
:1026000000C1814001C0804101C0804100C18140C2
:1026100000C1814001C0804101C0804100C18140B2
:1026200001C0804100C1814000C1814001C08041A2
:1026300000C1814001C0804101C0804100C1814092
:1026400001C0804100C1814000C1814001C0804182
:1026500001C0804100C1814000C1814001C0804172
:1026600000C1814001C0804101C0804100C1814062
:1026700000C0C101C30302C2C60607C705C5C40422
:10268000CC0C0DCD0FCFCE0E0ACACB0BC90908C892
:10269000D81819D91BDBDA1A1EDEDF1FDD1D1CDC82
:1026A00014D4D515D71716D6D21213D311D1D010F2
:1026B000F03031F133F3F23236F6F737F53534F4E2
:1026C0003CFCFD3DFF3F3EFEFA3A3BFB39F9F83852
:1026D00028E8E929EB2B2AEAEE2E2FEF2DEDEC2C42
:1026E000E42425E527E7E62622E2E323E12120E0B2
:1026F000A06061A163A3A26266A6A767A56564A4A2
:102700006CACAD6DAF6F6EAEAA6A6BAB69A9A86811
:1027100078B8B979BB7B7ABABE7E7FBF7DBDBC7C01
:10272000B47475B577B7B67672B2B373B17170B071
:102730005090915193535292965657975595945461
:102740009C5C5D9D5F9F9E5E5A9A9B5B99595898D1
:10275000884849894B8B8A4A4E8E8F4F8D4D4C8CC1
:102760004484854587474686824243834181804031
:102770009027000800000020DC000000280100086D
:102780006C280008DC0000208C08000044010008D0
:102790000100000010000000000000000024F40010
:1027A0000200000000000000000000000000000027
:1027B0000000000000000000000000000000000019
:1027C00000000000000000000000000011000000F8
:1027D0001D1B0008040000001D1A00080300000073
:1027E000B9190008100000002D1C000806000000A8
:1027F000971B0008170000007F1A00080100000066
:10280000D518000805000000411B00080F0000005B
:10281000C91B000802000000471900080000000062
:1028200000000000000000000000000000000000A8
:102830000000000000000000000000000000000098
:102840000000000000000000000000000000000088
:102850000000000000000000000000000000000078
:0C2860000000000000000000000000006C
:04000005080000ED02
:00000001FF
