:020000040800F2
:10000000B809002029020008C9220008D51B0008F1
:10001000411E0008C50400088926000800000000F1
:100020000000000000000000000000000B2300089A
:10003000D504000800000000092300080D23000873
:10004000430200084302000843020008430200087C
:10005000430200084302000843020008430200086C
:10006000430200084302000843020008430200085C
:10007000430200084302000843020008430200084C
:10008000430200084302000843020008430200083C
:10009000C9040008430200084302000843020008A4
:1000A000430200084302000843020008430200081C
:1000B000430200084302000843020008430200080C
:1000C00043020008430200084302000843020008FC
:1000D000430200085926000843020008652600086C
:1000E00043020008430200084302000843020008DC
:1000F00043020008430200084302000843020008CC
:1001000043020008430200084302000843020008BB
:1001100043020008430200084302000843020008AB
:10012000430200084302000843020008430200089B
:10013000430200084302000843020008430200088B
:10014000430200084302000843020008430200087B
:10015000430200084302000843020008430200086B
:10016000430200084302000843020008430200085B
:100170004302000843020008430200080000000098
:10018000430200084302000800F002F800F03CF8C7
:100190000AA090E8000C82448344AAF10107DA45E2
:1001A00001D100F031F8AFF2090EBAE80F0013F0F8
:1001B000010F18BFFB1A43F0010318476036000017
:1001C00080360000103A24BF78C878C1FAD85207A8
:1001D00024BF30C830C144BF04680C6070470000C1
:1001E0000023002400250026103A28BF78C1FBD840
:1001F000520728BF30C148BF0B6070471FB503F0DE
:10020000F6FA1FBD10B510BD00F0D4F81146FFF787
:10021000F5FF02F06DFD00F0F2F803B4FFF7F2FF16
:1002200003BC00F0F5F80000094880470948004782
:10023000FEE7FEE7FEE7FEE7FEE7FEE7FEE7FEE796
:10024000FEE7FEE704480549054A064B70470000F3
:10025000A523000889010008B8030020B809002080
:10026000B8050020B805002053EA020C00F06980B0
:100270002DE9F04B4FF00006002B1FBFB3FA83F5BA
:1002800003FA05F424FA05F65E4012BF1643B2FAEB
:1002900082F502FA05F4C5F120051EBF22FA05FC1D
:1002A00044EA0C04203556EA044C4FEA144418BFC3
:1002B000641C4FF000084FF00009904271EB030CF2
:1002C00039D3002919BFB1FA81F701FA07F6B0FA5C
:1002D00080F700FA07F6C7F120071EBF20FA07FCD7
:1002E00046EA0C062037B6FBF4FCA7EB0507103FE7
:1002F00007F01F0BCBF120060CFA0BFB2CFA06F6CD
:1003000044BFB3460026202FA4BF5E464FF0000B2B
:100310005BEA060C08BF4FF0010B19EB0B09ABFBB6
:10032000027C48EB0608C01B06FB02CC0BFB03CC8F
:1003300071EB0C01C1E70B46024641464846BDE859
:10034000F08B13B54FF000004FF00001AFF30080C9
:10035000BDE81C4070474FF0000200B513469446BC
:100360009646203922BFA0E80C50A0E80C50B1F10D
:100370002001BFF4F7AF090728BFA0E80C5048BF21
:100380000CC05DF804EB890028BF40F8042B08BFBF
:10039000704748BF20F8022B11F0804F18BF00F8BB
:1003A000012B704770477047704700000048704746
:1003B000580300207546FFF7F9FFAE460500694671
:1003C000534620F00700854618B020B5FFF73AFFE6
:1003D000BDE820404FF000064FF000074FF0000846
:1003E0004FF0000B21F00701AC46ACE8C009ACE8C7
:1003F000C009ACE8C009ACE8C0098D46704710B52B
:100400000446AFF300802046BDE81040FFF705BF6B
:1004100001491820ABBEFEE726000200704700002D
:1004200018489FED170A142180ED030A9FED160A64
:1004300080ED000A9FED150A80ED020A9FED140A77
:1004400080ED010A9FED130A80ED040A0175183052
:10045000012101700174022141740FA1816012A178
:10046000C16013A141609FED160A1430002180ED98
:10047000020A0160416080ED030A80ED040A7047C2
:100480000000EB4304030020008036440000484392
:1004900000800444000096425046205047563130B8
:1004A0003046323030410000544C373230000000CA
:1004B0004B494E434F20464431323478000000000F
:1004C00000000000FEE70000014800F082B90000D3
:1004D00038000020704772B6FEE790F82020012A0D
:1004E00007D0022A05D0416A41F4802141620120EF
:1004F0007047006842690A43426100207047F0B5C6
:1005000090F820500468A468012D05D0022D03D076
:10051000416A41F480215DE014F0406F01D1E500B3
:1005200055D5C4F30164022C03D9416A41F400019A
:1005300050E00125A5401D608D684FF4C0739DB14A
:10054000CE6835434E6845EAC605066803EB0417D6
:10055000F5514FF4C275076805EB04150E697E511D
:10056000097D012905D009E00E88CD6845EA465588
:10057000EBE701684E5946F480764E511179D579F2
:10058000567941EA056195792D0445EA0625294306
:100590004FF4C676056806EB0416A9511178D57894
:1005A00041EA0561957852782D0445EA022211430B
:1005B0004FF4C475026805EB04155151006803EB54
:1005C0000411425842F0010242500020F0BD416A3D
:1005D00041F4001141620120F0BD000010B590F817
:1005E0002020012A07D0022A05D0416A41F4802147
:1005F0004162012010BD3B48D0F8002242F00102C8
:10060000C0F80022D0F8002222F47C52C0F8002268
:10061000D0F800224B6A42EA0322C0F800220A7D89
:1006200002F01F0301229A40D0F81C329343C0F815
:100630001C32CB69B3B9D0F80C329343C0F80C32FA
:100640008C894B6864F31F434C6900EBC404C4F805
:1006500040320C890B6864F31F434C6900EBC404FF
:10066000C4F84432CB69012B16D1D0F80C321343B5
:10067000C0F80C320C884B6864F31F434C6900EBE4
:10068000C404C4F840320C89CB6864F31F434C693E
:1006900000EBC404C4F844328B69002BD0F8043258
:1006A0000ED01343C0F804320B69002BD0F814327B
:1006B00008D01343C0F81432096A012904D008E0B5
:1006C0009343EFE79343F5E7D0F81C121143C0F8CA
:1006D0001C12D0F8001221F00101C0F80012002015
:1006E00010BD000000640040704730B590F8204015
:1006F000012C05D0022C03D0416A41F480215DE039
:100700000468002955D02469A40754D04FF4D87444
:10071000056804EB01142D5915F004059560056872
:100720002D594ED0ED08556005682C5904F002048F
:10073000D4604FF4DA74056804EB01142D5905F008
:100740000F05156105682D59C5F3072595610568E5
:100750002C59240C54614FF4DC72046802EB011232
:10076000A4581C700468A458240A5C700468A45837
:10077000240C9C700468A258120EDA704FF4DE72DA
:10078000046802EB0112A4581C710468A458240ADE
:100790005C710468A458240C9C710468A258120E61
:1007A000DA71006881B1016941F020010161002026
:1007B00030BDE468A8E7416A41F4001141620120BC
:1007C00030BD6D0D1560AFE7C16841F02001C1601B
:1007D000EDE72DE9F05F0546006800244669D0F892
:1007E00004908768D0F80CB0D0F810A0D0F818802A
:1007F000F10748D0F90714D001218160B80703D56B
:10080000284600F08AFA0CE0780702D54FF400641D
:1008100007E0380702D54FF4805402E0284600F084
:100820007BFAF80516D529684FF480708860B80502
:1008300003D5284600F073FA0CE0780502D544F49D
:10084000005407E0380502D544F4804402E028460D
:1008500000F064FAF80316D529684FF480308860F8
:10086000B80303D5284600F05CFA0CE0780302D503
:1008700044F4004407E0380302D544F4803402E035
:10088000284600F04DFA300707D55FEACB6004D563
:100890002968102044F40074C86070074FF00807FE
:1008A00007D55FEA0B7004D52868C760284600F0BA
:1008B00059F9B00706D52868C068800702D02846D5
:1008C00000F052F9700607D55FEACA6004D52968BE
:1008D000102044F480640861B00607D55FEA0A700E
:1008E00004D528680761284600F0E6F9F00606D529
:1008F00028680069800702D0284600F0DEF9B003BE
:1009000008D55FEAC96005D52968102048602846E7
:1009100000F0D4F9F00307D55FEA097004D5286820
:100920004760284600F0FEF9300446D55FEA49707A
:1009300040D5F00504D55FEAC87001D044F0010449
:10094000B00504D55FEA887001D544F00204700553
:1009500004D55FEA487001D544F00404300529D578
:1009600018F0700F26D008F07000402815D006DC73
:10097000102809D020280AD0302816D10AE05028A3
:100980000ED0602811D10EE044F008040DE044F0D0
:1009900010040AE044F0200407E044F0400404E0BE
:1009A00044F0800401E044F480742868816921F0F7
:1009B00070018161296804204860002C05D0686AB4
:1009C000204368622846FFF78FFEBDE8F09F70B5B0
:1009D000040003D094F8200010B104E0012070BDA1
:1009E000204600F081F82068016841F001010160B3
:1009F00000F004FB0546052604E000F0FFFA401B6A
:100A00000A2811D820684068C007F6D0206801681D
:100A100021F00201016000F0F1FA05460BE000F060
:100A2000EDFA401B0A2806D9606A40F40030606283
:100A300084F82060D2E7206840688007EFD4207EE9
:100A40000128206801683DD021F080010160607EAE
:100A500001282068016838D021F040010160A07EA3
:100A600001282068016833D021F020010160E07E78
:100A70000128206801682ED041F010010160207F1C
:100A800001282068016829D021F008010160607FF9
:100A900001282068016824D021F004010160D4E914
:100AA00002010843D4E90412114308436168491E56
:100AB00008432168C86100206062012084F820009A
:100AC000002070BD41F08001C0E741F04001C5E762
:100AD00041F02001CAE721F01001CFE741F0080101
:100AE000D4E741F00401D9E710B586B004461421DB
:100AF0006846FFF730FC18492068884229D117481A
:100B00000021026842F000720260006800F000708C
:100B1000059012481038026842F001020260006835
:100B200000F0010005904FF4C05000900220CDE984
:100B3000010103200390092004906946084800F051
:100B40005FF900221146142000F0D2FA142000F0C0
:100B5000C2FA06B010BD00000064004040380240F8
:100B6000000002407047000030B54D4A00212DEDD5
:100B7000048B83B06B46FFF7B8FD494D2869082800
:100B80004BD100F03BFA474C60622868464D9FED20
:100B9000479BA0F58071813943D0B0F5C17F3CD12E
:100BA000287D4449484302F0B2FB41EC180B286908
:100BB00002F0ACFD53EC192B02F0C0FB41EC190B19
:100BC0009DF804009DF807109DF8052040EA01609B
:100BD0009DF80610090441EA0221084340F25371CE
:100BE000484302F094FB53EC192B02F0A7FB53ECA3
:100BF000182B02F005FA02F029F920619DF8000097
:100C00009DF803109DF8012040EA01609DF8021054
:100C1000090441EA02210843A06103B0BDEC048B42
:100C200030BD287D2349484302F071FB41EC180B8D
:100C3000286902F06BFD53EC192B02F07FFB41ECAD
:100C4000190B9DF804009DF807109DF8052040EA57
:100C500001609DF80610090441EA0221084340F2B0
:100C60005371484302F053FB53EC192B02F066FB1F
:100C700053EC182B02F0C4F902F0E8F8E0609DF89C
:100C800000009DF803109DF8012040EA01609DF8E6
:100C90000210090441EA022108436061BDE7000037
:100CA000000100203003002004030020EA2E4454F9
:100CB000FB21194000804F127047704770470000B9
:100CC00070B5044690F82000012804D0606A40F412
:100CD0000020606218E0022084F82000206801688B
:100CE00021F00101016000F089F905460EE000BF26
:100CF00000F084F9401B0A2808D9606A40F40030EB
:100D00006062052084F82000012070BD20684068E2
:100D1000C007EDD1606270BD704770477047704783
:100D20007047704770472DE9F0410446876D00F029
:100D300065F9064694F835000025022806D0802083
:100D4000606584F834500120BDE8F08120680168B6
:100D500021F0160101602068416921F080014161A4
:100D6000206C08B9A06C20B12068016821F008014E
:100D700001602068016821F0010101600CE000F0D1
:100D80003DF9801B052807D920206065032084F8E1
:100D9000350084F83450D7E720680068C007EED1EA
:100DA00094F85C103F208840B860012084F835003A
:100DB00084F834500020C7E790F83510022903D09A
:100DC0008021416501207047052180F835100068B9
:100DD000016821F0010101600020704770B50446F0
:100DE00000F00CF90546601C02D004480078044469
:100DF00000F004F9401BA042FAD370BD00000020AF
:100E00002DE9F84FDFF8BCA1002201250AF1040BFF
:100E100003264FF00F090BF1040E00BF0B6805FA13
:100E200002F42340A34270D10F7907F00307012F8A
:100E300001D0022F16D187684FEA420806FA08FC53
:100E400027EA0C07D1F80CC00CFA08FC4CEA070C96
:100E5000C0F808C04768A7430C79C4F30014944055
:100E60003C4344600C79E443A4070AD0C4684FEAC9
:100E7000420C06FA0CF7BC438F6807FA0CF72743BD
:100E8000C7600C7904F00304022C12D1D40800EBE3
:100E9000840CDCF820405707FF0E09FA07F824EA13
:100EA0000804D1F8108008FA07F848EA0408CCF8DA
:100EB000208004684FEA420C06FA0CF7BC430F7915
:100EC00007F0030707FA0CF7274307604C6814F490
:100ED000403F70D03C4C276847F480472760246827
:100EE00022F0030704F480440094384C07EB040C10
:100EF000DCF8084897074FEA177809FA08F7BC4367
:100F0000334FB84202D1002724E054E0314FB842B9
:100F100001D101271EE0304FB84201D1022719E06C
:100F20002E4FB84201D1032714E02D4FB84201D112
:100F300004270FE02B4FB84201D105270AE02A4FC2
:100F4000B84201D1062705E0284FB84201D1072752
:100F500000E0082707FA08F72743CCF80878DAF802
:100F600000405746D1F804C09C435FEACC3C00D512
:100F70001C433C60DBF800405F46D1F804C09C4352
:100F80005FEA8C3C00D51C433C60DEF800407746AD
:100F9000D1F804C09C435FEACC2C00D51C433C60D4
:100FA000084F0C373C68D1F804C09C435FEA8C2C96
:100FB00000D51C433C60521C102AFFF42FAFBDE843
:100FC000F88F0000003C01404438024000300140EE
:100FD000000002400004024000080240000C0240F1
:100FE000001002400014024000180240001C0240A1
:100FF0000AB1816170470904FBE70000014880687D
:101000007047000000000020024881680278114407
:1010100081607047000000200B4810B5016841F462
:1010200000710160016841F480610160016841F470
:1010300080710160032000F07BF80F2000F006F8BB
:1010400000F024F8002010BD003C024070B50D4DAA
:1010500004464FF47A712878B1FBF0F00A49096828
:10106000B1FBF0F000F016FB48B9102C07D20022BB
:101070002146501E00F03CF800206C6070BD01203D
:1010800070BD0000000000200C0000200A4808B5D8
:10109000016841F480410160006800F480400090E4
:1010A0000548001F016841F080510160006800F0B0
:1010B0008050009008BD000044380240002809DB41
:1010C00000F01F02012191404009800000F1E02062
:1010D000C0F880127047002809DB00F01F020121D0
:1010E00091404009800000F1E020C0F800117047F5
:1010F000F0B40E4B1B680C46C3F30223C3F1070583
:10110000042D00D90425191D072901D2002300E070
:10111000DB1E012606FA05F1491E214099409E403A
:10112000761E16403143F0BC01F0AFBA0CED00E082
:10113000064900F0070208684FF6FF03184040EA2E
:101140000220034A10430860704700000CED00E0E5
:101150000000FA052DE9F0470E46050065D0DFF8DE
:101160001481D8F80000F7B200F00700B04207D2AF
:1011700088F80070D8F8000000F00700B04254D1A1
:1011800028683D4C810712D5400703D5206840F4FC
:10119000E05020602878000703D5206840F46040C4
:1011A00020602068A96820F0F000084320602878BB
:1011B000C0072DD0304968680839012812D00228AC
:1011C00013D0032811D00968890700292DDA216876
:1011D00021F0030101432160FFF710FF814641F236
:1011E000883A0EE009688903EFE709688901ECE7AE
:1011F000FFF704FFA0EB0901514502D90320BDE828
:10120000F0872068696800F00C00B0EB810FEFD127
:10121000D8F80010404601F00701B14207D9077025
:10122000006800F00700B04201D00120E7E728780D
:10123000400705D52068E96820F4E05008432060A5
:101240002878000706D52068296920F4604040EA24
:10125000C100206000F038F82168084AC1F303118A
:10126000515CC8400649086006480068FFF7EEFE7A
:101270000020C4E7003C0240083802400238000861
:101280000C0000200400002004480549006809689B
:10129000044AC1F38221515CC84070470C00002011
:1012A00008380240123800080448054900680968F7
:1012B000044AC1F34231515CC84070470C00002021
:1012C0000838024012380008154810B5006810F0C0
:1012D0000C02144813D04110042A0FD0082A0ED152
:1012E0000F4C241F2268236802F03F025B0207D5DF
:1012F0002068C0F38810A0FB010106E0084610BD7D
:101300002168C1F38811A1FB00010023FEF7ACFFA7
:101310002168C1F30141491C4900B0FBF1F010BD47
:10132000083802400024F4002DE9F84F04006ED084
:101330002078DFF84C93C007A9F104054AD009F1E1
:1013400004000168C1F38101012908D00068C0F3DD
:10135000810002280AD1D9F80000400206D5286889
:10136000800337D560680028E1D033E06068B0F5CD
:10137000803F10D0B0F5A02F286810D020F4803026
:101380002860286820F4802028606068A8B1FFF7F2
:1013900035FE06460DE0286840F48030F4E740F45E
:1013A00080202860F7E700BFFFF728FE801B642835
:1013B00073D828688003F7D50CE0FFF71FFE0646B8
:1013C00005E000BFFFF71AFE801B6428F0D82868EC
:1013D0008003F7D42078DFF8AC8280074FF0000A52
:1013E0003ED5A748001D016811F00C0F08D0006819
:1013F000C0F3810002280BD1D9F80000400207D4C5
:101400002868800716D5E068012800D112E033E192
:10141000E068B8B10120C8F80000FFF7EFFD06460C
:1014200005E000BFFFF7EAFD801B0228C0D828684E
:101430008007F7D52868216920F0F80040EAC1004C
:1014400028600DE0C8F800A0FFF7D8FD064604E0CC
:10145000FFF7D4FD801B02281FD828688007F7D427
:101460002078000722D5864F87486169703771B1AF
:1014700001210160FFF7C2FD064604E0FFF7BEFD53
:10148000801B022809D838688007F7D50EE0C0F81D
:1014900000A0FFF7B3FD064605E082E0FFF7AEFDD2
:1014A000801B02287DD838688007F7D42078400751
:1014B00068D5DFF8CCB100270BF13C0BDBF800005E
:1014C000C0000BD4DBF8001041F08051CBF80010C5
:1014D000DBF80000012700F0805000906B4E306870
:1014E000C00510D4306840F480703060FFF786FD8E
:1014F000009005E0FFF782FD0099401A022850D8BD
:101500003068C005F6D55E4EA0686C3601280FD055
:101510000528306810D020F001003060306820F0DD
:1015200004003060A068B8B1FFF768FD00900FE0DC
:10153000306840F00100F4E740F004003060F7E765
:10154000FFF75CFD0099411A41F28830814266D86C
:1015500030688007F4D50EE0FFF750FD009007E0FB
:10156000FFF74CFD0099411A41F28830814256D86C
:1015700030688007F4D42FB1DBF8001021F08051DF
:10158000CBF80010A069C8B33D49091D0968C1F333
:10159000810102294AD00228504607D0C8F86000CD
:1015A00000E03CE0FFF72AFD04463BE04746C8F870
:1015B0006000FFF723FD064605E000BFFFF71EFDB4
:1015C000801B02282BD828688001F7D4D4E90701B2
:1015D0000843A16A2E4A490802EB0141626A41EAC6
:1015E0008211084394F82C1040EA0161C9F80010F8
:1015F00001203866FFF702FD044606E03EE000BF2A
:10160000FFF7FCFC001B022809D828688001F7D5E9
:1016100034E000BFFFF7F2FC001B022802D90320D0
:10162000BDE8F88F28688001F4D427E00128F7D0BE
:10163000D9F80000E26900F4800191421CD1226ACD
:1016400000F03F01914217D147F6C071626A014034
:10165000B1EB821F10D1A26A4FF0FF3300F440318A
:1016600003EB5202B1EB024F06D194F82C1000F0BC
:101670007060B0EB016F01D00120D1E70020CFE70F
:101680000438024000004742800E4742007000408C
:101690000000FFFF10B5401EB0F1807F01D3012094
:1016A00010BD4FF0E02460610F21601700F0EDFFE6
:1016B0000020A06107202061002010BD7047704706
:1016C000F8B5016804460868CA684B6910F00F0F46
:1016D0004FF0000559D003F0010602F4907737432C
:1016E00065D0C10705D0D10503D5216C41F00101BA
:1016F0002164410705D5D90703D0216C41F00201CF
:101700002164810705D5D90703D0216C41F004017C
:101710002164010707D502F02001314303D0216C79
:1017200041F008012164216C00293AD0800604D5DB
:10173000900602D5204600F06CFE20684069216CBE
:10174000C0F38010090700D460B3204600F03AFED1
:1017500020684069400621D52068143050E8001FF9
:1017600021F0400140E80012002AF5D1A06BA8B199
:101770006C490165A06BFFF71FFB002811D0A06B1F
:10178000016D01B0BDE8F040084783060FD5930610
:101790000DD52046BDE8F84000F03BBE2046FFF7DF
:1017A0008EFFF8BD2046FFF78AFF2564F8BD266B43
:1017B0002023012E79D1C60677D5D60675D50868BF
:1017C000486800904869400640D5A16B08684068A9
:1017D0000004000CEAD0A28D8242E7D9E085C869F6
:1017E000B0F5807F2DD020680C3050E8001F21F428
:1017F000807140E80012002AF5D12068143050E8CA
:10180000001F21F0010140E80012002AF5D12068F4
:10181000143050E8001F21F0400140E80012002A77
:10182000F5D184F83E30256320680C3050E8001F65
:1018300021F0100140E80012002AF5D1A06BFFF75B
:1018400072FAA08DE18D401A81B229E0A08DE18D60
:10185000401A81B2E08D0028A8D00029A6D02068C7
:101860000C3050E8002F22F4907240E80026002E41
:10187000F5D12068143050E8002F22F0010240E832
:101880000026002EF5D184F83E30256320680C3008
:1018900050E8002F22F0100240E80023002BF5D181
:1018A0002046FFF70BFFF8BDFFE705062BD5150611
:1018B00029D594F83D002128F5D1A068B0F5805FC6
:1018C00001D12069B0B1206A411C216221680078F1
:1018D0004860E08C401E0004000CE084E3D12068E6
:1018E000C16821F08001C1602068C16841F04001F9
:1018F000C160D8E7206A0088C0F308004860206A09
:10190000801C2062E5E74006CDD55006CBD5CA68DD
:10191000204622F04002CA6084F83D3000F059F9B8
:10192000C1E70000B523000870B5040004D094F8A6
:101930003D00002510B106E0012070BD84F83C5048
:10194000204600F023F8242084F83D002068C16878
:1019500021F40051C160204600F0BCFD20680169FF
:1019600021F4904101612068416921F02A0141611F
:101970002068C16841F40051C1602564202084F8CA
:101980003D0084F83E00002070BD000070B586B0B8
:10199000044614216846FEF7DEFC2B4E2268002127
:1019A0002A48022303240725B24222D1274A1432AF
:1019B000166846F010061660126802F010020592D2
:1019C000026842F001020260006802AA00F0010011
:1019D000059082E832006002CDE9000369461C48A8
:1019E000FFF70EFA002211462520FFF781FB252084
:1019F00025E0184EB24224D1144A1032166846F43B
:101A000080261660126802F480220592026842F075
:101A100004020260006802AA00F00400059082E857
:101A200032004FF44060CDE9000369460A48FFF7F1
:101A3000E7F9002211462720FFF75AFB2720FFF77E
:101A40004AFB06B070BD0000001001403038024073
:101A50000000024000480040000802402DE9F84F15
:101A6000044690F83E009A4616460D46202853D16B
:101A7000FDB1F6B194F83C0001284DD0012084F866
:101A80003C0000272764222084F83E002763FFF7EC
:101A9000B5FAA6858146E685A0684FF48058404592
:101AA00001D1206940B12E465FF0000584F83C70FA
:101AB00027E00120BDE8F88F0026F7E74B4600221B
:101AC00020212046CDF800A000F08AFD08B10320B7
:101AD000F0E726B1A06840451BD038B108E0206887
:101AE0004068C0F3080025F8020B07E0206980B1C8
:101AF0002068406800F07F0006F8010BE08D401E72
:101B0000E085E08D0028D9D1202084F83E00002017
:101B1000D0E720684068EFE70220CBE7704700007D
:101B20002DE9F843044690F83D001F4616460D4641
:101B300020284CD1C5B1BEB194F83C00012846D054
:101B4000012084F83C004FF00008C4F840802120B8
:101B500084F83D00FFF752FAA6848146E684A06827
:101B6000B0F5805F03D004E00120BDE8F883206970
:101B700028B12E465FF0000584F83C800EE0002678
:101B8000FAE78021204600F02BFDA0B9AEB116F88F
:101B9000010B21684860E08C401EE084E08C4B46DD
:101BA0004FF0000200970028EBD14FF04001204693
:101BB00000F016FD30B10320D7E735F8020BC0F373
:101BC0000800E6E7202084F83D000020CDE7022051
:101BD000CBE77047FEE7000070B506222DED028BC3
:101BE0000221012000F0E6FAE8B9002000F0D6FA60
:101BF00060F30F04012000F0D1FA60F31F440220CB
:101C000000F0CCFA60F30F05032000F0C7FA60F390
:101C10001F45042000F0C2FA60F30F06052000F013
:101C2000BDFA60F31F46200CA1B2020A49BA62F362
:101C30001F4141EA00601D49084401F068FB9FED27
:101C40001C8B53EC182B01F079FB01F0FFF81A4CB8
:101C5000A9B249BA2060280C020A62F31F4141EA86
:101C60000060A0F59C40203801F051FB9FED131B54
:101C700053EC112B01F062FB01F0E8F86060300CCE
:101C8000B1B2020A49BA62F31F4141EA0060A0F50D
:101C90008C40503801F03BFB53EC182B01F04EFB0D
:101CA00001F0D4F8A060BDEC028B70BD10B6FDFF52
:101CB0007B14AE47E17A843FF8020020FCA9F1D200
:101CC0004D62503F10B500224FF480710548FFF778
:101CD0008FF900F05BFAFF221021BDE810400120CF
:101CE00000F072BA0018024010B50848FEF7E8FF8D
:101CF00002210648FEF7F1FB05480721016100219A
:101D000041608160C160017510BD00003800002095
:101D1000E800002010B517488AB01549016010216D
:101D20000024C0E901140903C0E90341090141612C
:101D3000047644768476C47604774477FEF747FECB
:101D400008B172B6FEE71221CDE90441012001037A
:101D50000890CDE90014CDE90214CDE90640142025
:101D6000099069460348FEF739FC0AB010BD00002F
:101D7000006400403800002070B586B01421684629
:101D8000FEF7E9FA1A480024016841F08001016079
:101D9000016801F080010591016841F04001016096
:101DA000016801F040010591016841F00101016005
:101DB000016801F001010591016841F00401016031
:101DC00000680C4E00F004004FF48075059000226E
:101DD00029463046FFF70CF901200095CDE90104B2
:101DE000694630460394FFF70BF806B070BD00005B
:101DF000303802400018024010B5104C0E484FF425
:101E0000806120604FF4E13060604FF48050A0604A
:101E10000020C4E903010C21C4E90510E06120465B
:101E2000FFF782FD08B172B6FEE72068C16841F095
:101E30002001C16010BD000000480040A400002047
:101E4000FEE700002DE9F04FDFF838A3C1B00746E8
:101E50009AF8001000258DF8001002244FF00809B0
:101E600068468DF80170032F09D004DC012F06D0DD
:101E7000022F13D103E0042F01D0172F0ED1BAF88F
:101E800004100B0A8DF802308DF80310BAF8061012
:101E90000A0A8DF804208DF805100624102F0BD0A7
:101EA00006DC052F08D0062F06D00F2F0BD103E03C
:101EB000162F01D0172F06D1BAF808100A0A0255BA
:101EC000641C0155641CAF49DFF8BC824FF6FF7BF0
:101ED0004989B8F800C00B0A4FEA1C26CAB20CF0B8
:101EE000FF0C102F3ED006DC052F09D0062F0BD09B
:101EF0000F2F5ED10EE0162F4ED0172F59D131E0A3
:101F00000355641C025503E00655641C00F804C028
:101F1000641C4EE00355641C02554A07994904F1BC
:101F2000010449894FEAD10100D0491CCAB20255C7
:101F30000021641C0EE000BF11F001030DD03BB185
:101F400021F0010338F803301B0A0355641CE4B286
:101F5000491CC9B29142EFD32BE021F0010318F8DC
:101F60000330F2E70355641CCBB20255641C0BEA44
:101F7000410202550022641C0BE000BF38F8121029
:101F80000E0A0655641CE4B20155641C521CE4B2EE
:101F9000D2B29342F2D80CE00655641C00F804C09B
:101FA000B8F80210641C0A0A0255641C0155641C2E
:101FB000E4B25A460026804608E000BF18F8061032
:101FC000104600F0FBFC761C0246F6B2A642F5D3A2
:101FD00008F80420641CE1B2120A08F80120491C28
:101FE000CCB2002108F8041000F038F92146684608
:101FF00000F04AF9002400F003F9064600F01CF94D
:1020000048B100F00BF908F80400641CA9F10100C4
:10201000E4B200F0FF09052C2DD19DF800109AF8CC
:102020000000814201D0E025A0E09DF8010000F011
:102030007F01B94201D0E12598E0C10902D09DF8A5
:10204000025025E0062812D006DC062813D2DFE86D
:1020500000F0120B0B0B0B0E0F2808D0102806D027
:10206000162806D0172806D19DF8020002E00320AA
:1020700000E00520814600F0C3F8801BB0F57A7FB0
:1020800000D9E225B9F1000F02D0002DB6D06DE0E5
:102090009DBB052C1AD300265846A71E06E000BF9C
:1020A00018F8061000F08AFC761CF6B2BE42F7DB88
:1020B00008EB0401C2B211F8023C9A4204D111F8B3
:1020C000011C000A884201D0E3254FE02E4A9DF80A
:1020D0000100803A03282ED004DC012807D0022812
:1020E00044D104E0042826D017283FD123E0002063
:1020F000414653469DF802400DE01BE0402807D2C0
:1021000001EB40063779F67806EB072622F81060D7
:10211000D870401CC0B2B0EB540FEFD3E40725D009
:10212000402804D208EB4001C97822F81010401C66
:102130008AF803001AE09DF802100020B0EB510F5E
:1021400014D243464FEA0A0403EB400696F803C054
:10215000377907EB0C2622F81060E070401CC0B203
:10216000B0EB510F02D24028EED3F6E700208AF8F8
:102170000100AAF80C008AF8020041B02846BDE828
:10218000F08F0000180000209C0100200248002170
:102190004170818100F036B818000020402803D239
:1021A000034931F8100070474FF6FF707047000088
:1021B0001C010020034B18709980DA800320FFF780
:1021C00041BE000018000020044B18701981002047
:1021D0005881034802800620FFF734BE1800002013
:1021E0009C01002010B5012301461A460348FFF761
:1021F00035FC002800D0012010BD0000A400002004
:10220000FEF7FCBE044910B5C822A1F1140000F08D
:10221000E9FD012010BD00003002002010B5FF24B0
:10222000044800F0E8FD18B9024800F0ECFD04464F
:10223000204610BD1C020020074810B5807C0128F4
:1022400002D1054800F0C8FD034800F0D4FD08B1F4
:10225000002010BD012010BD1C02002010B5024856
:1022600000F0BAFD10BD00001C02002008B5684651
:10227000FFF7B8FF002804D19DF80010014800F0D6
:10228000D3FD08BD1C0200202DE9F04101220C4FB6
:102290000C460546160231463846FEF7A9FEFF23D6
:1022A000224629460748FFF73BFC10B10120BDE854
:1022B000F081002231463846FEF79AFE0020F6E70C
:1022C00000180240A4000020FEE700000C48D0EDFA
:1022D000021A0C4820EE210AC0ED011AD0ED002AA6
:1022E00032EEA12A71EEE22A80ED022A00EE820A85
:1022F000C0ED032AC0ED001A01EE220A704700006B
:10230000300300202800002070477047FEF77CBE95
:1023100030B593B030216846FEF71DF814210CA8A3
:10232000FEF719F81D480025016841F08051016051
:10233000006800F0805011901948016841F4804114
:1023400001600068022400F4804011900120009098
:10235000000401908001CDE9064008AA0420A021D4
:1023600082E813000B906846FEF7DEFF08B172B6F4
:10237000FEE70CA90F2081E831004FF4A0500F9028
:102380004FF48050109005210CA8FEF7E3FE0028C2
:1023900001D072B6FEE713B030BD000040380240F5
:1023A000007000400248016841F47001016070470C
:1023B00088ED00E010B5806B0021C185C184FFF776
:1023C0007EF910BD01680C3151E8002F22F49072A3
:1023D00041E80023002BF5D10168143151E8002FAA
:1023E00022F0010241E80023002BF5D1016B012905
:1023F00009D101680C3151E8002F22F0100241E8A8
:102400000023002BF5D1202180F83E10002101632C
:10241000704708B590F83E10222901D0022008BD6F
:1024200082684FF480539A4201D1016921B1816AD7
:102430009A421BD04AB10AE00268816A5268C2F32C
:1024400008020A80816A891C08E0026972B1026888
:10245000526802F07F020A70816A491C8162C18D54
:10246000491E0904090CC18503D019E002685268AD
:10247000F1E70168CA6822F02002CA600168CA68F0
:1024800022F48072CA6001684A6922F001024A613E
:10249000202180F83E10016B012903D0FFF73EFB9D
:1024A000002008BD0021016301680C3151E8002FB4
:1024B00022F0100241E80023002BF5D101680A68E0
:1024C000D20602D50A6849680091818DFFF7F6F8B7
:1024D000E6E7000070B5044600680169E26821F48F
:1024E0004051114301612169A068E26908436169B3
:1024F000114308432168CA6849F20C639A430243B6
:10250000CA6020684169A26921F4407111434161A8
:1025100031492068884202D03049884202D1FEF712
:10252000C3FE01E0FEF7B0FEE26900231921642535
:102530003226B2F5004F626828D0A0FB0101930F4C
:102540009200FDF791FE0146B0FBF5F06FF0180226
:10255000504301EB800006EB0010B0FBF5F000F0FB
:10256000F002B1FBF5F002EB0012B1FBF5F06FF0F9
:102570001803584301EB800006EB0010B0FBF5F0A8
:1025800000F00F0021681044886070BDA0FB0101BD
:1025900092185B41FDF768FE0146B0FBF5F00201C1
:1025A000B1FBF5F06FF01803584301EB800006EB28
:1025B000C000B0FBF5F000F0F80002EB4002B1FB08
:1025C000F5F0584301EB800006EBC000B0FBF5F0DE
:1025D00000F00700D6E700000010014000140140A1
:1025E0002DE9F041984617460E460446069D27E021
:1025F000681C25D02DB1FEF701FDA0EB0800A84214
:102600001ED920680C3050E8001F21F4D07140E83A
:102610000012002AF5D12068143050E8001F21F084
:10262000010140E80012002AF5D1202084F83D0085
:1026300084F83E00002084F83C000320BDE8F081CF
:102640002068006836EA000004D00020B842CFD0ED
:102650000020F3E70120F9E70148FFF731B8000057
:1026600060000020074810B50068C068800601D5EA
:10267000FFF7FCFD2720FEF721FDBDE810400148D3
:10268000FFF71EB8A4000020FEE70907090E002886
:1026900004DB00F1E02080F80014704700F00F0028
:1026A00000F1E02080F8141D704700000FB42DEDFC
:1026B000040B2DE9F04F2DED0E8B83B0F0EE419A17
:1026C000B0EE60EAB0EE409A229E00F0F9FADFF830
:1026D00040B2904DDBF814402869A04601F016F88E
:1026E0009FED8D0B53EC102B00F028FE41EC180BE6
:1026F000287D00EE100AB8EE400A20EE090ADFED50
:10270000880A20EE200A10EE100A00F0FFFF53ECBA
:10271000182B00F075FC00F0CBFD054600EE105ABA
:10272000F7EE00EAB8EEC00AB0EE6E8A20EE0E0AAE
:10273000BDEEC00A10EE109A9FED7A9A0127F0EED6
:10274000498A9FED79AB24E002200096CDE9017023
:102750000DF1780AB0EE680A9AE80F0000F0B6F9B9
:1027600019EE900A00F0D2FF53EC1A2B00F0E6FDB0
:1027700041EC1B0B18EE900A00F0C8FF53EC1B2B2A
:1027800000F096FB00F062FB08EE900A0A20FEF7CC
:1027900025FBF4EEE98AF1EE10FAD5D308EB050734
:1027A000A7427DDD00F08CFAFFF716FAB0EE491A69
:1027B0009FED5FCAF0EE4C0ADFED5EBAB0EE6B0A39
:1027C000FFF784FD002001240096F0EE6E8ACDE92B
:1027D00001400DF1780A30EE280A29EE88BA9AE80D
:1027E0000F0020EE0B0A00F071F9B0EE491AF0EE7E
:1027F0004C0AB0EE6B0AFFF769FD38EEC00A01948F
:10280000009602949AE80F0020EE0B0A00F05EF9A1
:1028100000EE108ADBF81440F8EEC00A00EE105A01
:10282000B8EEC00A40EE0E0ABDEEE00A10EE100A45
:10283000A04246DAA7EB040A0AEB09000190A9EBD3
:102840000A0000903348F0EE000AD14690ED040AE9
:1028500020EE200ADFED380A20EE200A10EE100AE2
:1028600000F054FF41EC1D0B009800F050FD53ECBC
:102870001A2B00F063FD41EC1C0B019800F047FDA2
:1028800053EC1A2B00F05AFD41EC1B0B504600F0A4
:102890003EFD9FED2A1B53EC112B00F04FFD00E095
:1028A00022E053EC1B2B00F003FB53EC1C2B00F03D
:1028B000FFFA53EC1D2B00F0A3FB00F0C7FA08EE63
:1028C000100A18EE100AB0F17E5F02DDB0EE688AE1
:1028D00006E018EE100A1B49884201DA9FED1A8AB9
:1028E0001420FEF77BFA5BE7022001210096CDE978
:1028F00001101EACB0EE490A94E80F0000F0E6F8B3
:1029000003B0BDEC0E8BBDE8F00F5DF824FB0000BA
:102910003003002004030020EA2E4454FB21194018
:1029200000401C46000000007B14AE47E17A843F63
:102930000AD7233CCDCCCC3D0000C8429A99999946
:102940009999B93FCDCC4C3ECDCC4C3E10B5164CF0
:102950002DED048BB0EE409A206900F0D7FE9FED7C
:10296000130B53EC102B00F0E9FC9FED120A41EC25
:10297000180B207D69EE000A00EE100AB8EE400A3E
:1029800020EE800ADFED0C0A20EE200A10EE100A7D
:1029900000F0BCFE53EC182B00F032FBBDEC048BB6
:1029A000BDE8104000F084BC0403002073EC4579BE
:1029B0007C02C74000409C4A000070424840002111
:1029C0004AF20102C30702D082EA500000E0400848
:1029D000491C0829F6DB70472DE9FC41089DFEF7EC
:1029E0000DFBDFF8D08034A1354CC8F82400D1E9C4
:1029F0000001CDE90001EEB2072706F50076276158
:102A0000304B6A46214630482660FDF778FD08B114
:102A1000FDF761FDC5F3072505F50075294B6A46ED
:102A2000274929482560FDF76AFD08B1FDF753FDE8
:102A30003220FEF7D3F901208DF8000000208DF838
:102A400001002060022020611E4B6A461C491E487E
:102A5000FDF755FD08B1FDF73EFD3220FEF7BEF94A
:102A6000FD208DF800000F208DF801002761154B27
:102A70006A46134914482660FDF741FD08B1FDF789
:102A80002AFD104B6A460E490F482560FDF737FDB9
:102A900008B1FDF720FD3220FEF7A0F900F010F993
:102AA000D8F81410C8F81C10D8F81810C8F820105E
:102AB000BDE8FC8130030020FD060000000000009E
:102AC000E80000201000002038000020F0B577A4B6
:102AD0002DED028B83B0F0EE408ADDE90B010A9AFE
:102AE000D4E90034CDE90034D7B2724C0725C2F3E3
:102AF0000726B1EE688A06F5007607F5007701280B
:102B000027D0022877D0032871D1B0EE480AFFF70A
:102B10001DFF000E8DF80600B0EE480AFFF716FF05
:102B2000000C8DF80500B0EE480AFFF70FFF000A11
:102B30008DF80400B0EE480AFFF708FF8DF8030097
:102B400027605D4B6A465B495C482561FDF7D7FC11
:102B500042E0E1B301296CD0B0EE680AFFF7F6FE5F
:102B6000000E8DF80600B0EE680AFFF7EFFE000CCD
:102B70008DF80500B0EE680AFFF7E8FE000A8DF850
:102B80000400B0EE680AFFF7E1FE8DF8030027604D
:102B9000494B6A46474949482561FDF7B0FCB0EE0C
:102BA000480AFFF7D3FE000E8DF80600B0EE480A83
:102BB000FFF7CCFE000C8DF80500B0EE480AFFF7D9
:102BC000C5FE000A8DF80400B0EE480A00E013E0EC
:102BD000FFF7BCFE8DF803002660374B6A46354987
:102BE00036482561FDF78BFC0120FEF7F7F803B0AE
:102BF000BDEC028BF0BD40E0B0EE680AFFF7A6FE28
:102C0000000E8DF80600B0EE680AFFF79FFE000C7C
:102C10008DF80500B0EE680AFFF798FE000A8DF8FF
:102C20000400B0EE680AFFF791FE8DF803002760FC
:102C30001BE0B0EE480AFFF789FE000E8DF8060093
:102C4000B0EE480AFFF782FE000C8DF80500B0EEEA
:102C5000480AFFF77BFE000A8DF80400B0EE480A30
:102C6000FFF774FE8DF803002660134B6A46114986
:102C700012482561FDF743FCB9E7B0EE680AFFF79B
:102C800065FE000E8DF80600B0EE680AFFF75EFEE6
:102C9000000C8DF80500B0EE680AFFF757FE000A39
:102CA0008DF80400B0EE680A46E70000FD0F000052
:102CB00000000000E8000020100000203800002084
:102CC000084810B58021016000210A4601610146D3
:102CD000054B0648FDF713FCBDE810400120FEF748
:102CE0007DB80000E800002010000020380000201F
:102CF0002DED048B84B0FEF78FF9FFF709FBFFF78A
:102D00003BF8FFF707F82D482B494FF4806201602C
:102D10004FF4E13141604FF4805181600021C0E9FE
:102D200003120C22C0E90521C161FEF7FDFD08B1C7
:102D300072B6FEE7FFF760F8FDF772FBFEF7C2FF21
:102D4000FEF7D2FF1E4C2069009094E80F00FFF7B9
:102D500043FE02210120CDE901012069009094E8A1
:102D60000F009FED180AFFF7B1FE4FF47A75FFF7D9
:102D7000A7FF6800FEF732F813494869C8618869FF
:102D800008622846FEF72AF89FED108ADFED108AC8
:102D90009FED109A42F210752069009094E80F00A0
:102DA000B0EE481AF0EE680AB0EE490AFFF77EFC72
:102DB0002846FEF713F8EFE70010014060000020FE
:102DC0001C030020000000003003002000004843E6
:102DD0003333333F00007A4401688160C1600021D1
:102DE000817470478B18C0E900138160C160028252
:102DF000002181747047D0E90210814201D1012085
:102E0000704700207047D0E902128A4201D10020A9
:102E10007047511CC16043681278994202D1038AFD
:102E2000C91AC1601046704710B5826844681346DD
:102E3000521C944201D1048A121BC468944202D0ED
:102E40001970826010BD0121817410BD21F0004213
:102E5000A2F16052B2F5801F01F0004328BFD2F109
:102E60007F6C0BD95FEA001C43EAC20242EB507050
:102E700018BF704728BF20F001007047B2F5801FCF
:102E8000BCBF184670474FEA410C1CF5001F02D228
:102E9000084600F0B1BC70B500F0FAFA00000089F5
:102EA000FFF7F6BF4FF00040A0F58000704700002C
:102EB00010B591EA030F48BF83F0004300F144834B
:102EC000841A71EB030C05D2121943EB0C03001B9F
:102ED00061EB0C01DFF824E14FEA1154A4EB135C21
:102EE0001EEA430F18BF9EEA445F73D023EA0E0325
:102EF000DCF1200E21EA045143F4801332D322FA8C
:102F00000CFE10EB0E0023FA0CFE41EB0E01CCF18F
:102F1000200E03FA0EFE10EB0E0051F10001B1F588
:102F2000801FCCF1200E32D201EB045112FA0EF2C6
:102F3000BDE8104058BF7047401C38BF5FEA4202EE
:102F400018BF7047002814BF20F0010041F10001B4
:102F50004FEA410313F5001F38BF7047A1F1C0418C
:102F600000F0E4BA012A43EB0302ACF1200CDCF1DF
:102F70001F0E32BF4FF0000E23FA0CF310EB0300CC
:102F800041EB0451B4EB115FD0D0A1EB045101F53A
:102F9000801149085FEA300001EB04510ED350F173
:102FA000000038BF12FA0EFE08D1BDE81040C9E794
:102FB000401C38BF5FEA4202CAD1C3E7BDE81040F7
:102FC0004FEA410313F5001F38BF7047A1F1C0411C
:102FD00000F0ACBA9EEA445F08D011EA5E0FBDE88B
:102FE000104004BF01F0004100207047BDE81040D0
:102FF00070B500F04DFA00BF64FBBE3E0000E0FF7C
:103000002DE9C04130B4DFF8A0C23CEA111418BF6A
:103010003CEA131400F0EC8081EA03051CEA111469
:1030200044EAD57418BF1CEA131500F0C780A4EB5E
:1030300005044FF0004545EAC12145EAC32341EAB2
:10304000505143EA525304F17F74994204F500341D
:103050004FEAC0204FEAC22208BF904200F09C8095
:103060004FEA13650FF24016765D4FEA134506FBF3
:1030700005F7C7F1807706FB07F74FEAD737A7FBBD
:1030800003687642C8F58038A7FB06CE38BFA8F1A2
:10309000010807FB08E64FF0000EA6FB028CE6FBDA
:1030A00003CEDCF1000CCEF1004E38BFAEF1010EC4
:1030B000A6FB0C584FF000074FF00005E6FB0E870B
:1030C000A1FB08C6A0FB07CE16EB0E0645F10005D6
:1030D000E1FB076515F1E04E7EBFA4F580345FEAA1
:1030E00046066D4116F1800745F100054FEA1727A6
:1030F0004FEA066647EA0567A6F1DE46B6F1805F4D
:103100004FEA15251FD9384624F0010C05EBC47190
:10311000BCF1FE6F01EB0C1102D8F0BCBDE80081E0
:1031200024425CBF01F5801E9EEAC47F02D4F0BC3D
:10313000BDE80081244238D4F0BCA1F1C041BDE813
:10314000004100F0F3B94FEAD22242EA43524FEA7B
:10315000D323A7FB02864FEAD02040EA415007FB69
:1031600003661EEA0E0F4FEAD12105FB026658BF27
:10317000A6EB0056B6EB00564FEA520E4EEAC37E5F
:1031800018EB0E0E56EB530EBDD518EB02085E4140
:103190007F1C55F10005B6E74FF480154FF000078E
:1031A0004FF000064FF00008ADE7F0BC4FF0000014
:1031B00001F1C04101F00041BDE8008111EA0C1F9E
:1031C0000CEA131500D00CE013EA0C1F00F0258068
:1031D0004FF00000F0BC81EA030101F00041BDE8BE
:1031E0000081F0BCBDE8004181EA030100F09EB916
:1031F000F0BCBDE8004170B500F04AF9097EFC3E24
:1032000000F007B881EA03014FF0000001F000412F
:10321000704781EA030100F089B9F0BCBDE80041C4
:103220004FF0000021497047FFFDFBF9F7F5F4F27C
:10323000F0EEEDEBE9E8E6E4E3E1E0DEDDDBDAD851
:10324000D7D5D4D3D1D0CFCDCCCBCAC8C7C6C5C4AF
:10325000C2C1C0BFBEBDBCBBBAB9B8B7B6B5B4B3C6
:10326000B2B1B0AFAEADACABAAA9A8A8A7A6A5A4B1
:10327000A3A3A2A1A09F9F9E9D9C9C9B9A99999875
:103280009797969595949393929191908F8F8E8E18
:103290008D8C8C8B8B8A89898888878786858584A5
:1032A00084838382828181800000FF070000F87F91
:1032B0004FEA41034FEA5353A3F58063D3F11E0352
:1032C000C8BFD3F1210C0CDD4FF0004242EAC1220D
:1032D00042EA505232FA03FC8CEAE17CACEBE1703A
:1032E0007047102BC4BF0020704703F5787CBCF1F9
:1032F000FF3F04D06FF0004282EA2100704770B5B2
:1033000000F0C6F84992248000207047F2E710F0E0
:10331000004248BF4042B0FA80F310FA03F10AD0ED
:10332000C3F11D0303F580634FEA415002EB0352E2
:1033300002EBD12170474FF000007047DFF848C121
:1033400070B51CEA111E1EBF1CEA13159EEA0C0F75
:1033500095EA0C0F00F06F8081EA030423EA4C1316
:103360004EEAD47E21EA4C1141F4801143F48013DB
:10337000AE44A1FB024CA0FB0365AEF17F7E361983
:1033800055EB0C05A1FB034C4CF10003A0FB021C08
:1033900016EB0C06654153F10003094218BF46F0D5
:1033A000010613F4007F0BD14FEA03314FEA0530D9
:1033B000340341EA155140EA16506FF003020AE067
:1033C0004FEAC3214FEAC520F40241EA555140EAD1
:1033D00056506FF0020202EB2E4201EB025585EAD5
:1033E000CE710AD05FEA440C18BF24F0004450F1BB
:1033F000000041F1000120EAD47040F2FE7C6245F9
:1034000000D270BDA84214BF4FF080444FF040443A
:10341000002E08BF0024BEF1806FA8BFA1F1C041FB
:10342000BDE8704080F282804FF0000001F1C041A1
:1034300001F0004170479EEA0C0F0CEA131518BF0B
:1034400095EA0C0F06D04FF0000081EA030E0EF053
:10345000004170BD00F01CF88900013E00F007B883
:1034600000F009B84FEA430C5FEA5C5C08D081EADF
:10347000030100F05BB84FEA410C5FEA5C5CF6D1F7
:103480004FF00000014970470000FF070000F87F7F
:103490000EF1020E2EF0030E5EF8046B364205D4D8
:1034A000012A43EB030515F5001F12D8012841EB53
:1034B000010C1CF5001F0CD80ED14FEAD17C15F57C
:1034C000001F0CEB4C0C0CF1020C08BF4CEBD37C36
:1034D00004E04FF0080C01E04FEAD37C0CEB4C0504
:1034E00026FA05F606F00706B6F1040C06D20EEB36
:1034F000860CBDE870404CF0010C6047DFE80CF032
:10350000090B02024FF000414FF00000A1F500212D
:1035100070BD19461046012851EB010418BFD4F5BF
:10352000001484BF002001F0004170BD0808A0F520
:1035300000114FEA3101704710B591EA030F48BFFF
:1035400083F000433FF5BCAC841A71EB030C07D247
:1035500012198CF0004C43EB0C03001B61EB0C01C7
:10356000DFF8A4E14FEA1154A4EB135C1EEA430F09
:1035700018BF9EEA445F00F0B08023EA6E03524217
:1035800021EA0451C3EB6E0338BF5B1EDCF1200E51
:1035900025D322FA0CFE10EB0E0043FA0CFE41EB91
:1035A0000E01CCF1200E03FA0EFE10EB0E0051F1CD
:1035B0000001CCF1200E29D412FA0EF201EB0451D5
:1035C000BDE8104058BF7047401C1CBFB2F1004F0F
:1035D000704700280CBF491C20F00100704712EB17
:1035E000020E43EB030218BF4FF0010E4EEA4202F7
:1035F000ACF1200CDCF11E0E54D943FA0CFE10EB9A
:103600000E0051F1FF31CCF11E0ED5D50EF1010E99
:1036100012FA0EFE404141EB010101EB445C5FEA0E
:103620005C5C10D910EBDE7001EB045138BFBEF1C9
:10363000004FBDE8104018BF704700280CBF491C60
:1036400020F00100704730D24FEAD42C11F5001160
:1036500024F400641BD0B1FA81F20B3AA41AA41E20
:10366000D2F12003914030FA03F31943904001EB6B
:10367000CC71002C01EB0451BDE81040A8BF70478D
:1036800001F1C0414FF0000001F000417047B0FA75
:1036900080F310FA03F100D110BDE41A173C48057D
:1036A000C90AE4E701EB045110BD491001EB0451D4
:1036B000BDE810404FEA300002E04FF000017047D3
:1036C0004A0008BF0042F8D0B2F5001F28BF70477B
:1036D00001F000414FF0000070479EEA445F07D0C0
:1036E00011EA5E0FBDE8104004BF002100207047C2
:1036F000BDE8104070B5FFF7CBFE00BF40DFF63EDF
:1037000083F00041104670470000E0FF43004FEA9D
:10371000D30C4FEA3C0C43401FBF40070CF16051F3
:1037200013F0FE4F70471CF0006F03D100200CF027
:10373000004170470CF0004343EA507010B540EA76
:10374000CC0000F00EF800BF000000924FEA00012C
:10375000FFF7ECBE4FF000414FF00000A1F5002153
:1037600070470EF1020E2EF0030E5EF8044B244259
:1037700004D44FEA4102B2F17F4F11D84FEA40031F
:10378000B3F17F4F0CD80ED14FEAD07CB2F17F4F0E
:103790000CEB4C0C0CF1020C08BF4CEBD17C04E0A0
:1037A0004FF0080C01E04FEAD17C0CEB4C0324FAFB
:1037B00003F404F00704B4F1040C06D20EEB840CFD
:1037C000BDE810404CF0010C6047DFE80CF0070842
:1037D00002024FF00040A0F5800010BD08464200F4
:1037E00018BFD2F1807288BF00F0004010BD4FF0CA
:1037F0004070E1EE100A7047FF2141EAD050C00549
:1038000070470000000000000000010203040607EA
:103810000809000000000102030400003C38000811
:103820000000002038000000C401000874380008BF
:103830003800002080090000E001000801000000BD
:1038400010000000000000000024F4000000000050
:103850000000000000000000000000000000000068
:103860000000000000000000000000000000000058
:043870000000000054
:040000050800018965
:00000001FF
